:100000003C043C043C043C043C043C043C043C04F0
:100010003C043C043C043C043C043C043C043C04E0
:100020003C043C043C043C043C043C043C043C04D0
:100030003C043C043C043C043C043C043C043C04C0
:100040003C043C043C043C043C043C043C043C04B0
:100050003C043C043C043C043C043C043C043C04A0
:100060003C043C043C043C043C043C043C043C0490
:100070003C043C043C043C043C043C043C043C0480
:100080003C043C043C043C043C043C043C043C0470
:070090003C043C043C047633
:00000001FF